S01700004763634170706C69636174696F6E332E7372656359
S11300000C9434000C9451000C9451000C94510045
S11300100C9451000C9451000C9451000C94510018
S11300200C9451000C9451000C9451000C94510008
S11300300C9451000C9451000C9451000C945100F8
S11300400C9451000C9451000C9451000C945100E8
S11300500C9451000C9451000C9451000C945100D8
S11300600C9451000C94510011241FBECFEFD8E022
S1130070DEBFCDBF11E0A0E0B1E0EAE7F2E002C0EC
S113008005900D92A230B107D9F721E0A2E0B1E0CA
S113009001C01D92A330B207E1F70E9428010C941D
S11300A03B010C940000319905C0880F880F880F1C
S11300B085B9089515B80895309B0BC080E0089564
S11300C02FEF89EF90E0215080409040E1F700C08D
S11300D00000309BF5CF81E008958FEF8AB987B196
S11300E08C7F87B988B1836088B984B1886184B909
S11300F00895809101010E9453008AEA8BB90E94FD
S11301005C00882321F082E08093010108952FEFA1
S113011081EE94E0215080409040E1F700C000005F
S113012085E58BB90E945C00882321F082E08093EE
S1130130010108952FEF81EE94E02150804090401A
S1130140E1F700C000000895CF93C0E01FC0809184
S113015001010E94530081E090E00C2E02C0880F40
S1130160991F0A94E2F78BB90E945C00882321F05E
S113017083E0809301010CC02FEF81EE94E02150C5
S113018080409040E1F700C00000CF5FC830F8F233
S1130190CF91089580910101833009F058C00E94E5
S11301A053008091000190910201981708F04AC011
S11301B021E030E0A90102C0440F551F8A95E2F7FF
S11301C04BB90E945C00882349F081E080930101CF
S11301D087E0809300011092020108955FEF81EEA1
S11301E094E0515080409040E1F700C0000081E06D
S11301F090E00090020102C0880F991F0A94E2F770
S11302008BB90E945C00882349F081E0809301014E
S113021087E0809300011092020108952FEF41EED0
S113022054E0215040405040E1F700C0000080916C
S11302300001815080930001809102018F5F8093BF
S11302400201089587E0809300011092020108954D
S11302500E946D0080910101823039F0833041F0B9
S11302608130C1F70E947900F5CF0E94A400F2CF3B
S10D02700E94CA00EFCFF894FFCFFC
S105027A070176
S9030000FC
